{
  "_format": "hh-sol-artifact-1",
  "contractName": "VotingGuardian",
  "sourceName": "contracts/Voting.sol",
  "abi": [
    {
      "inputs": [],
      "stateMutability": "nonpayable",
      "type": "constructor"
    },
    {
      "inputs": [],
      "name": "AccessControlBadConfirmation",
      "type": "error"
    },
    {
      "inputs": [
        {
          "internalType": "address",
          "name": "account",
          "type": "address"
        },
        {
          "internalType": "bytes32",
          "name": "neededRole",
          "type": "bytes32"
        }
      ],
      "name": "AccessControlUnauthorizedAccount",
      "type": "error"
    },
    {
      "anonymous": false,
      "inputs": [
        {
          "indexed": true,
          "internalType": "uint256",
          "name": "electionId",
          "type": "uint256"
        },
        {
          "indexed": false,
          "internalType": "string",
          "name": "name",
          "type": "string"
        },
        {
          "indexed": false,
          "internalType": "uint256",
          "name": "startTime",
          "type": "uint256"
        },
        {
          "indexed": false,
          "internalType": "uint256",
          "name": "endTime",
          "type": "uint256"
        }
      ],
      "name": "ElectionCreated",
      "type": "event"
    },
    {
      "anonymous": false,
      "inputs": [
        {
          "indexed": true,
          "internalType": "bytes32",
          "name": "role",
          "type": "bytes32"
        },
        {
          "indexed": true,
          "internalType": "bytes32",
          "name": "previousAdminRole",
          "type": "bytes32"
        },
        {
          "indexed": true,
          "internalType": "bytes32",
          "name": "newAdminRole",
          "type": "bytes32"
        }
      ],
      "name": "RoleAdminChanged",
      "type": "event"
    },
    {
      "anonymous": false,
      "inputs": [
        {
          "indexed": true,
          "internalType": "bytes32",
          "name": "role",
          "type": "bytes32"
        },
        {
          "indexed": true,
          "internalType": "address",
          "name": "account",
          "type": "address"
        },
        {
          "indexed": true,
          "internalType": "address",
          "name": "sender",
          "type": "address"
        }
      ],
      "name": "RoleGranted",
      "type": "event"
    },
    {
      "anonymous": false,
      "inputs": [
        {
          "indexed": true,
          "internalType": "bytes32",
          "name": "role",
          "type": "bytes32"
        },
        {
          "indexed": true,
          "internalType": "address",
          "name": "account",
          "type": "address"
        },
        {
          "indexed": true,
          "internalType": "address",
          "name": "sender",
          "type": "address"
        }
      ],
      "name": "RoleRevoked",
      "type": "event"
    },
    {
      "anonymous": false,
      "inputs": [
        {
          "indexed": true,
          "internalType": "uint256",
          "name": "electionId",
          "type": "uint256"
        },
        {
          "indexed": true,
          "internalType": "bytes32",
          "name": "voterCommitment",
          "type": "bytes32"
        },
        {
          "indexed": true,
          "internalType": "bytes32",
          "name": "candidateHash",
          "type": "bytes32"
        }
      ],
      "name": "VoteCast",
      "type": "event"
    },
    {
      "inputs": [],
      "name": "ADMIN_ROLE",
      "outputs": [
        {
          "internalType": "bytes32",
          "name": "",
          "type": "bytes32"
        }
      ],
      "stateMutability": "view",
      "type": "function"
    },
    {
      "inputs": [],
      "name": "DEFAULT_ADMIN_ROLE",
      "outputs": [
        {
          "internalType": "bytes32",
          "name": "",
          "type": "bytes32"
        }
      ],
      "stateMutability": "view",
      "type": "function"
    },
    {
      "inputs": [
        {
          "internalType": "bytes32",
          "name": "idHash",
          "type": "bytes32"
        },
        {
          "internalType": "uint256",
          "name": "positionId",
          "type": "uint256"
        }
      ],
      "name": "addCandidate",
      "outputs": [],
      "stateMutability": "nonpayable",
      "type": "function"
    },
    {
      "inputs": [
        {
          "internalType": "bytes32",
          "name": "",
          "type": "bytes32"
        }
      ],
      "name": "candidates",
      "outputs": [
        {
          "internalType": "bytes32",
          "name": "idHash",
          "type": "bytes32"
        },
        {
          "internalType": "uint256",
          "name": "positionId",
          "type": "uint256"
        },
        {
          "internalType": "bool",
          "name": "exists",
          "type": "bool"
        }
      ],
      "stateMutability": "view",
      "type": "function"
    },
    {
      "inputs": [
        {
          "internalType": "uint256",
          "name": "electionId",
          "type": "uint256"
        },
        {
          "internalType": "bytes32",
          "name": "voterCommitment",
          "type": "bytes32"
        },
        {
          "internalType": "bytes32",
          "name": "candidateHash",
          "type": "bytes32"
        },
        {
          "internalType": "bytes32[]",
          "name": "merkleProof",
          "type": "bytes32[]"
        }
      ],
      "name": "castVote",
      "outputs": [],
      "stateMutability": "nonpayable",
      "type": "function"
    },
    {
      "inputs": [
        {
          "internalType": "uint256",
          "name": "electionId",
          "type": "uint256"
        },
        {
          "internalType": "string",
          "name": "name",
          "type": "string"
        },
        {
          "internalType": "uint256",
          "name": "startTime",
          "type": "uint256"
        },
        {
          "internalType": "uint256",
          "name": "endTime",
          "type": "uint256"
        },
        {
          "internalType": "bytes32",
          "name": "merkleRoot",
          "type": "bytes32"
        }
      ],
      "name": "createElection",
      "outputs": [],
      "stateMutability": "nonpayable",
      "type": "function"
    },
    {
      "inputs": [
        {
          "internalType": "uint256",
          "name": "",
          "type": "uint256"
        }
      ],
      "name": "elections",
      "outputs": [
        {
          "internalType": "string",
          "name": "name",
          "type": "string"
        },
        {
          "internalType": "uint256",
          "name": "startTime",
          "type": "uint256"
        },
        {
          "internalType": "uint256",
          "name": "endTime",
          "type": "uint256"
        },
        {
          "internalType": "bytes32",
          "name": "merkleRoot",
          "type": "bytes32"
        },
        {
          "internalType": "bool",
          "name": "exists",
          "type": "bool"
        }
      ],
      "stateMutability": "view",
      "type": "function"
    },
    {
      "inputs": [
        {
          "internalType": "bytes32",
          "name": "role",
          "type": "bytes32"
        }
      ],
      "name": "getRoleAdmin",
      "outputs": [
        {
          "internalType": "bytes32",
          "name": "",
          "type": "bytes32"
        }
      ],
      "stateMutability": "view",
      "type": "function"
    },
    {
      "inputs": [
        {
          "internalType": "bytes32",
          "name": "role",
          "type": "bytes32"
        },
        {
          "internalType": "address",
          "name": "account",
          "type": "address"
        }
      ],
      "name": "grantRole",
      "outputs": [],
      "stateMutability": "nonpayable",
      "type": "function"
    },
    {
      "inputs": [
        {
          "internalType": "bytes32",
          "name": "role",
          "type": "bytes32"
        },
        {
          "internalType": "address",
          "name": "account",
          "type": "address"
        }
      ],
      "name": "hasRole",
      "outputs": [
        {
          "internalType": "bool",
          "name": "",
          "type": "bool"
        }
      ],
      "stateMutability": "view",
      "type": "function"
    },
    {
      "inputs": [
        {
          "internalType": "bytes32",
          "name": "role",
          "type": "bytes32"
        },
        {
          "internalType": "address",
          "name": "callerConfirmation",
          "type": "address"
        }
      ],
      "name": "renounceRole",
      "outputs": [],
      "stateMutability": "nonpayable",
      "type": "function"
    },
    {
      "inputs": [
        {
          "internalType": "bytes32",
          "name": "role",
          "type": "bytes32"
        },
        {
          "internalType": "address",
          "name": "account",
          "type": "address"
        }
      ],
      "name": "revokeRole",
      "outputs": [],
      "stateMutability": "nonpayable",
      "type": "function"
    },
    {
      "inputs": [
        {
          "internalType": "uint256",
          "name": "",
          "type": "uint256"
        },
        {
          "internalType": "bytes32",
          "name": "",
          "type": "bytes32"
        }
      ],
      "name": "spentCommitments",
      "outputs": [
        {
          "internalType": "bool",
          "name": "",
          "type": "bool"
        }
      ],
      "stateMutability": "view",
      "type": "function"
    },
    {
      "inputs": [
        {
          "internalType": "bytes4",
          "name": "interfaceId",
          "type": "bytes4"
        }
      ],
      "name": "supportsInterface",
      "outputs": [
        {
          "internalType": "bool",
          "name": "",
          "type": "bool"
        }
      ],
      "stateMutability": "view",
      "type": "function"
    }
  ],
  "bytecode": "0x60806040523480156200001157600080fd5b50620000276000801b336200006160201b60201c565b506200005a7fa49807205ce4d355092ef5a8a18f56e8913cf4a201fbe287825b095693c21775336200006160201b60201c565b50620001d6565b60006200007583836200016460201b60201c565b6200015957600160008085815260200190815260200160002060000160008473ffffffffffffffffffffffffffffffffffffffff1673ffffffffffffffffffffffffffffffffffffffff16815260200190815260200160002060006101000a81548160ff021916908315150217905550620000f5620001ce60201b60201c565b73ffffffffffffffffffffffffffffffffffffffff168273ffffffffffffffffffffffffffffffffffffffff16847f2f8788117e7eff1d82e926ec794901d17c78024a50270940304540a733656f0d60405160405180910390a4600190506200015e565b600090505b92915050565b600080600084815260200190815260200160002060000160008373ffffffffffffffffffffffffffffffffffffffff1673ffffffffffffffffffffffffffffffffffffffff16815260200190815260200160002060009054906101000a900460ff16905092915050565b600033905090565b611d4f80620001e66000396000f3fe608060405234801561001057600080fd5b50600436106100ea5760003560e01c806375b238fc1161008c57806391d148541161006657806391d148541461025f578063a217fddf1461028f578063bd7cab9c146102ad578063d547741f146102dd576100ea565b806375b238fc14610209578063789175b214610227578063840e12f514610243576100ea565b8063248a9ca3116100c8578063248a9ca31461016d5780632f2ff15d1461019d57806336568abe146101b95780635e6fef01146101d5576100ea565b806301ffc9a7146100ef57806317386b871461011f5780631a0478d51461013b575b600080fd5b61010960048036038101906101049190610f98565b6102f9565b6040516101169190610fe0565b60405180910390f35b610139600480360381019061013491906110cc565b610373565b005b61015560048036038101906101509190611154565b610681565b6040516101649392919061119f565b60405180910390f35b61018760048036038101906101829190611154565b6106b8565b60405161019491906111d6565b60405180910390f35b6101b760048036038101906101b2919061124f565b6106d7565b005b6101d360048036038101906101ce919061124f565b6106f9565b005b6101ef60048036038101906101ea919061128f565b610774565b60405161020095949392919061134c565b60405180910390f35b61021161083f565b60405161021e91906111d6565b60405180910390f35b610241600480360381019061023c91906113fc565b610863565b005b61025d60048036038101906102589190611496565b610a10565b005b6102796004803603810190610274919061124f565b610b0b565b6040516102869190610fe0565b60405180910390f35b610297610b75565b6040516102a491906111d6565b60405180910390f35b6102c760048036038101906102c291906114d6565b610b7c565b6040516102d49190610fe0565b60405180910390f35b6102f760048036038101906102f2919061124f565b610bab565b005b60007f7965db0b000000000000000000000000000000000000000000000000000000007bffffffffffffffffffffffffffffffffffffffffffffffffffffffff1916827bffffffffffffffffffffffffffffffffffffffffffffffffffffffff1916148061036c575061036b82610bcd565b5b9050919050565b8460006001600083815260200190815260200160002090508060040160009054906101000a900460ff166103dc576040517f08c379a00000000000000000000000000000000000000000000000000000000081526004016103d390611562565b60405180910390fd5b8060010154421015610423576040517f08c379a000000000000000000000000000000000000000000000000000000000815260040161041a906115ce565b60405180910390fd5b806002015442111561046a576040517f08c379a00000000000000000000000000000000000000000000000000000000081526004016104619061163a565b60405180910390fd5b60006001600089815260200190815260200160002090506002600087815260200190815260200160002060020160009054906101000a900460ff166104e4576040517f08c379a00000000000000000000000000000000000000000000000000000000081526004016104db906116a6565b60405180910390fd5b60036000898152602001908152602001600020600088815260200190815260200160002060009054906101000a900460ff1615610556576040517f08c379a000000000000000000000000000000000000000000000000000000000815260040161054d90611712565b60405180910390fd5b6105cc858580806020026020016040519081016040528093929190818152602001838360200280828437600081840152601f19601f820116905080830192505050505050508260030154896040516020016105b19190611753565b60405160208183030381529060405280519060200120610c37565b61060b576040517f08c379a0000000000000000000000000000000000000000000000000000000008152600401610602906117ba565b60405180910390fd5b6001600360008a8152602001908152602001600020600089815260200190815260200160002060006101000a81548160ff0219169083151502179055508587897f2e82bdc8daf342458c2dc7bf51c3aefd294a3f9d8389e73e35937693b793882e60405160405180910390a45050505050505050565b60026020528060005260406000206000915090508060000154908060010154908060020160009054906101000a900460ff16905083565b6000806000838152602001908152602001600020600101549050919050565b6106e0826106b8565b6106e981610c4e565b6106f38383610c62565b50505050565b610701610d53565b73ffffffffffffffffffffffffffffffffffffffff168173ffffffffffffffffffffffffffffffffffffffff1614610765576040517f6697b23200000000000000000000000000000000000000000000000000000000815260040160405180910390fd5b61076f8282610d5b565b505050565b600160205280600052604060002060009150905080600001805461079790611809565b80601f01602080910402602001604051908101604052809291908181526020018280546107c390611809565b80156108105780601f106107e557610100808354040283529160200191610810565b820191906000526020600020905b8154815290600101906020018083116107f357829003601f168201915b5050505050908060010154908060020154908060030154908060040160009054906101000a900460ff16905085565b7fa49807205ce4d355092ef5a8a18f56e8913cf4a201fbe287825b095693c2177581565b7fa49807205ce4d355092ef5a8a18f56e8913cf4a201fbe287825b095693c2177561088d81610c4e565b6001600088815260200190815260200160002060040160009054906101000a900460ff16156108f1576040517f08c379a00000000000000000000000000000000000000000000000000000000081526004016108e890611886565b60405180910390fd5b6040518060a0016040528087878080601f016020809104026020016040519081016040528093929190818152602001838380828437600081840152601f19601f820116905080830192505050505050508152602001858152602001848152602001838152602001600115158152506001600089815260200190815260200160002060008201518160000190816109879190611a81565b5060208201518160010155604082015181600201556060820151816003015560808201518160040160006101000a81548160ff021916908315150217905550905050867fe7a0aae5d733e07e246dea86213a1ac1b0aa8554bde889bb75c12752f44e53d9878787876040516109ff9493929190611b8f565b60405180910390a250505050505050565b7fa49807205ce4d355092ef5a8a18f56e8913cf4a201fbe287825b095693c21775610a3a81610c4e565b6002600084815260200190815260200160002060020160009054906101000a900460ff1615610a9e576040517f08c379a0000000000000000000000000000000000000000000000000000000008152600401610a9590611c1b565b60405180910390fd5b60405180606001604052808481526020018381526020016001151581525060026000858152602001908152602001600020600082015181600001556020820151816001015560408201518160020160006101000a81548160ff021916908315150217905550905050505050565b600080600084815260200190815260200160002060000160008373ffffffffffffffffffffffffffffffffffffffff1673ffffffffffffffffffffffffffffffffffffffff16815260200190815260200160002060009054906101000a900460ff16905092915050565b6000801b81565b60036020528160005260406000206020528060005260406000206000915091509054906101000a900460ff1681565b610bb4826106b8565b610bbd81610c4e565b610bc78383610d5b565b50505050565b60007f01ffc9a7000000000000000000000000000000000000000000000000000000007bffffffffffffffffffffffffffffffffffffffffffffffffffffffff1916827bffffffffffffffffffffffffffffffffffffffffffffffffffffffff1916149050919050565b600082610c448584610e4d565b1490509392505050565b610c5f81610c5a610d53565b610ea3565b50565b6000610c6e8383610b0b565b610d4857600160008085815260200190815260200160002060000160008473ffffffffffffffffffffffffffffffffffffffff1673ffffffffffffffffffffffffffffffffffffffff16815260200190815260200160002060006101000a81548160ff021916908315150217905550610ce5610d53565b73ffffffffffffffffffffffffffffffffffffffff168273ffffffffffffffffffffffffffffffffffffffff16847f2f8788117e7eff1d82e926ec794901d17c78024a50270940304540a733656f0d60405160405180910390a460019050610d4d565b600090505b92915050565b600033905090565b6000610d678383610b0b565b15610e4257600080600085815260200190815260200160002060000160008473ffffffffffffffffffffffffffffffffffffffff1673ffffffffffffffffffffffffffffffffffffffff16815260200190815260200160002060006101000a81548160ff021916908315150217905550610ddf610d53565b73ffffffffffffffffffffffffffffffffffffffff168273ffffffffffffffffffffffffffffffffffffffff16847ff6391f5c32d9c69d2a47ea670b442974b53935d1edc7fd64eb21e047a839171b60405160405180910390a460019050610e47565b600090505b92915050565b60008082905060005b8451811015610e9857610e8382868381518110610e7657610e75611c3b565b5b6020026020010151610ef4565b91508080610e9090611c99565b915050610e56565b508091505092915050565b610ead8282610b0b565b610ef05780826040517fe2517d3f000000000000000000000000000000000000000000000000000000008152600401610ee7929190611cf0565b60405180910390fd5b5050565b6000818310610f0c57610f078284610f1f565b610f17565b610f168383610f1f565b5b905092915050565b600082600052816020526040600020905092915050565b600080fd5b600080fd5b60007fffffffff0000000000000000000000000000000000000000000000000000000082169050919050565b610f7581610f40565b8114610f8057600080fd5b50565b600081359050610f9281610f6c565b92915050565b600060208284031215610fae57610fad610f36565b5b6000610fbc84828501610f83565b91505092915050565b60008115159050919050565b610fda81610fc5565b82525050565b6000602082019050610ff56000830184610fd1565b92915050565b6000819050919050565b61100e81610ffb565b811461101957600080fd5b50565b60008135905061102b81611005565b92915050565b6000819050919050565b61104481611031565b811461104f57600080fd5b50565b6000813590506110618161103b565b92915050565b600080fd5b600080fd5b600080fd5b60008083601f84011261108c5761108b611067565b5b8235905067ffffffffffffffff8111156110a9576110a861106c565b5b6020830191508360208202830111156110c5576110c4611071565b5b9250929050565b6000806000806000608086880312156110e8576110e7610f36565b5b60006110f68882890161101c565b955050602061110788828901611052565b945050604061111888828901611052565b935050606086013567ffffffffffffffff81111561113957611138610f3b565b5b61114588828901611076565b92509250509295509295909350565b60006020828403121561116a57611169610f36565b5b600061117884828501611052565b91505092915050565b61118a81611031565b82525050565b61119981610ffb565b82525050565b60006060820190506111b46000830186611181565b6111c16020830185611190565b6111ce6040830184610fd1565b949350505050565b60006020820190506111eb6000830184611181565b92915050565b600073ffffffffffffffffffffffffffffffffffffffff82169050919050565b600061121c826111f1565b9050919050565b61122c81611211565b811461123757600080fd5b50565b60008135905061124981611223565b92915050565b6000806040838503121561126657611265610f36565b5b600061127485828601611052565b92505060206112858582860161123a565b9150509250929050565b6000602082840312156112a5576112a4610f36565b5b60006112b38482850161101c565b91505092915050565b600081519050919050565b600082825260208201905092915050565b60005b838110156112f65780820151818401526020810190506112db565b60008484015250505050565b6000601f19601f8301169050919050565b600061131e826112bc565b61132881856112c7565b93506113388185602086016112d8565b61134181611302565b840191505092915050565b600060a08201905081810360008301526113668188611313565b90506113756020830187611190565b6113826040830186611190565b61138f6060830185611181565b61139c6080830184610fd1565b9695505050505050565b60008083601f8401126113bc576113bb611067565b5b8235905067ffffffffffffffff8111156113d9576113d861106c565b5b6020830191508360018202830111156113f5576113f4611071565b5b9250929050565b60008060008060008060a0878903121561141957611418610f36565b5b600061142789828a0161101c565b965050602087013567ffffffffffffffff81111561144857611447610f3b565b5b61145489828a016113a6565b9550955050604061146789828a0161101c565b935050606061147889828a0161101c565b925050608061148989828a01611052565b9150509295509295509295565b600080604083850312156114ad576114ac610f36565b5b60006114bb85828601611052565b92505060206114cc8582860161101c565b9150509250929050565b600080604083850312156114ed576114ec610f36565b5b60006114fb8582860161101c565b925050602061150c85828601611052565b9150509250929050565b7f496e76616c696420656c656374696f6e00000000000000000000000000000000600082015250565b600061154c6010836112c7565b915061155782611516565b602082019050919050565b6000602082019050818103600083015261157b8161153f565b9050919050565b7f4e6f742073746172746564000000000000000000000000000000000000000000600082015250565b60006115b8600b836112c7565b91506115c382611582565b602082019050919050565b600060208201905081810360008301526115e7816115ab565b9050919050565b7f456e646564000000000000000000000000000000000000000000000000000000600082015250565b60006116246005836112c7565b915061162f826115ee565b602082019050919050565b6000602082019050818103600083015261165381611617565b9050919050565b7f496e76616c69642063616e646964617465000000000000000000000000000000600082015250565b60006116906011836112c7565b915061169b8261165a565b602082019050919050565b600060208201905081810360008301526116bf81611683565b9050919050565b7f416c726561647920766f74656400000000000000000000000000000000000000600082015250565b60006116fc600d836112c7565b9150611707826116c6565b602082019050919050565b6000602082019050818103600083015261172b816116ef565b9050919050565b6000819050919050565b61174d61174882611031565b611732565b82525050565b600061175f828461173c565b60208201915081905092915050565b7f4e6f7420616e20656c696769626c6520766f7465720000000000000000000000600082015250565b60006117a46015836112c7565b91506117af8261176e565b602082019050919050565b600060208201905081810360008301526117d381611797565b9050919050565b7f4e487b7100000000000000000000000000000000000000000000000000000000600052602260045260246000fd5b6000600282049050600182168061182157607f821691505b602082108103611834576118336117da565b5b50919050565b7f456c656374696f6e206578697374730000000000000000000000000000000000600082015250565b6000611870600f836112c7565b915061187b8261183a565b602082019050919050565b6000602082019050818103600083015261189f81611863565b9050919050565b7f4e487b7100000000000000000000000000000000000000000000000000000000600052604160045260246000fd5b60008190508160005260206000209050919050565b60006020601f8301049050919050565b600082821b905092915050565b6000600883026119377fffffffffffffffffffffffffffffffffffffffffffffffffffffffffffffffff826118fa565b61194186836118fa565b95508019841693508086168417925050509392505050565b6000819050919050565b600061197e61197961197484610ffb565b611959565b610ffb565b9050919050565b6000819050919050565b61199883611963565b6119ac6119a482611985565b848454611907565b825550505050565b600090565b6119c16119b4565b6119cc81848461198f565b505050565b5b818110156119f0576119e56000826119b9565b6001810190506119d2565b5050565b601f821115611a3557611a06816118d5565b611a0f846118ea565b81016020851015611a1e578190505b611a32611a2a856118ea565b8301826119d1565b50505b505050565b600082821c905092915050565b6000611a5860001984600802611a3a565b1980831691505092915050565b6000611a718383611a47565b9150826002028217905092915050565b611a8a826112bc565b67ffffffffffffffff811115611aa357611aa26118a6565b5b611aad8254611809565b611ab88282856119f4565b600060209050601f831160018114611aeb5760008415611ad9578287015190505b611ae38582611a65565b865550611b4b565b601f198416611af9866118d5565b60005b82811015611b2157848901518255600182019150602085019450602081019050611afc565b86831015611b3e5784890151611b3a601f891682611a47565b8355505b6001600288020188555050505b505050505050565b82818337600083830152505050565b6000611b6e83856112c7565b9350611b7b838584611b53565b611b8483611302565b840190509392505050565b60006060820190508181036000830152611baa818688611b62565b9050611bb96020830185611190565b611bc66040830184611190565b95945050505050565b7f43616e6469646174652065786973747300000000000000000000000000000000600082015250565b6000611c056010836112c7565b9150611c1082611bcf565b602082019050919050565b60006020820190508181036000830152611c3481611bf8565b9050919050565b7f4e487b7100000000000000000000000000000000000000000000000000000000600052603260045260246000fd5b7f4e487b7100000000000000000000000000000000000000000000000000000000600052601160045260246000fd5b6000611ca482610ffb565b91507fffffffffffffffffffffffffffffffffffffffffffffffffffffffffffffffff8203611cd657611cd5611c6a565b5b600182019050919050565b611cea81611211565b82525050565b6000604082019050611d056000830185611ce1565b611d126020830184611181565b939250505056fea264697066735822122048bb1c48fd43ca8ad57e13e687e4ad242b8b3c42e126a579b9665cf6f7c7066964736f6c63430008140033",
  "linkReferences": {},
  "deployedLinkReferences": {}
}